{
  "contractName": "Djob",
  "abi": [
    {
      "inputs": [
        {
          "internalType": "uint256",
          "name": "",
          "type": "uint256"
        }
      ],
      "name": "Emps",
      "outputs": [
        {
          "internalType": "address",
          "name": "employee",
          "type": "address"
        },
        {
          "internalType": "string",
          "name": "name",
          "type": "string"
        },
        {
          "internalType": "uint256",
          "name": "age",
          "type": "uint256"
        },
        {
          "internalType": "string",
          "name": "role",
          "type": "string"
        },
        {
          "internalType": "uint256",
          "name": "yearsofexperiance",
          "type": "uint256"
        },
        {
          "internalType": "string",
          "name": "skills",
          "type": "string"
        }
      ],
      "stateMutability": "view",
      "type": "function"
    },
    {
      "inputs": [
        {
          "internalType": "uint256",
          "name": "",
          "type": "uint256"
        }
      ],
      "name": "Jobs",
      "outputs": [
        {
          "internalType": "address",
          "name": "employer",
          "type": "address"
        },
        {
          "internalType": "string",
          "name": "jname",
          "type": "string"
        },
        {
          "internalType": "string",
          "name": "jobDesc",
          "type": "string"
        },
        {
          "internalType": "uint256",
          "name": "budget",
          "type": "uint256"
        },
        {
          "internalType": "string",
          "name": "jlocation",
          "type": "string"
        },
        {
          "internalType": "string",
          "name": "jmode",
          "type": "string"
        }
      ],
      "stateMutability": "view",
      "type": "function"
    },
    {
      "inputs": [
        {
          "internalType": "address",
          "name": "",
          "type": "address"
        },
        {
          "internalType": "address",
          "name": "",
          "type": "address"
        }
      ],
      "name": "applied",
      "outputs": [
        {
          "internalType": "uint256",
          "name": "",
          "type": "uint256"
        }
      ],
      "stateMutability": "view",
      "type": "function"
    },
    {
      "inputs": [
        {
          "internalType": "uint256",
          "name": "",
          "type": "uint256"
        }
      ],
      "name": "cliants",
      "outputs": [
        {
          "internalType": "address payable",
          "name": "",
          "type": "address"
        }
      ],
      "stateMutability": "view",
      "type": "function"
    },
    {
      "inputs": [
        {
          "internalType": "address",
          "name": "",
          "type": "address"
        }
      ],
      "name": "empdetails",
      "outputs": [
        {
          "internalType": "address",
          "name": "employee",
          "type": "address"
        },
        {
          "internalType": "string",
          "name": "name",
          "type": "string"
        },
        {
          "internalType": "uint256",
          "name": "age",
          "type": "uint256"
        },
        {
          "internalType": "string",
          "name": "role",
          "type": "string"
        },
        {
          "internalType": "uint256",
          "name": "yearsofexperiance",
          "type": "uint256"
        },
        {
          "internalType": "string",
          "name": "skills",
          "type": "string"
        }
      ],
      "stateMutability": "view",
      "type": "function"
    },
    {
      "inputs": [
        {
          "internalType": "uint256",
          "name": "",
          "type": "uint256"
        }
      ],
      "name": "empssss",
      "outputs": [
        {
          "internalType": "address payable",
          "name": "",
          "type": "address"
        }
      ],
      "stateMutability": "view",
      "type": "function"
    },
    {
      "inputs": [
        {
          "internalType": "address",
          "name": "",
          "type": "address"
        },
        {
          "internalType": "uint256",
          "name": "",
          "type": "uint256"
        }
      ],
      "name": "hire",
      "outputs": [
        {
          "internalType": "uint256",
          "name": "",
          "type": "uint256"
        }
      ],
      "stateMutability": "view",
      "type": "function"
    },
    {
      "inputs": [
        {
          "internalType": "address",
          "name": "",
          "type": "address"
        },
        {
          "internalType": "uint256",
          "name": "",
          "type": "uint256"
        }
      ],
      "name": "jobdetails",
      "outputs": [
        {
          "internalType": "address",
          "name": "employer",
          "type": "address"
        },
        {
          "internalType": "string",
          "name": "jname",
          "type": "string"
        },
        {
          "internalType": "string",
          "name": "jobDesc",
          "type": "string"
        },
        {
          "internalType": "uint256",
          "name": "budget",
          "type": "uint256"
        },
        {
          "internalType": "string",
          "name": "jlocation",
          "type": "string"
        },
        {
          "internalType": "string",
          "name": "jmode",
          "type": "string"
        }
      ],
      "stateMutability": "view",
      "type": "function"
    },
    {
      "inputs": [],
      "name": "x",
      "outputs": [
        {
          "internalType": "uint256",
          "name": "",
          "type": "uint256"
        }
      ],
      "stateMutability": "view",
      "type": "function"
    },
    {
      "inputs": [
        {
          "internalType": "string",
          "name": "name",
          "type": "string"
        },
        {
          "internalType": "string",
          "name": "jdesc",
          "type": "string"
        },
        {
          "internalType": "uint256",
          "name": "budjet",
          "type": "uint256"
        },
        {
          "internalType": "string",
          "name": "jloc",
          "type": "string"
        },
        {
          "internalType": "string",
          "name": "jmode",
          "type": "string"
        }
      ],
      "name": "postjob",
      "outputs": [],
      "stateMutability": "nonpayable",
      "type": "function"
    },
    {
      "inputs": [
        {
          "internalType": "string",
          "name": "name",
          "type": "string"
        },
        {
          "internalType": "uint256",
          "name": "age",
          "type": "uint256"
        },
        {
          "internalType": "string",
          "name": "role",
          "type": "string"
        },
        {
          "internalType": "uint256",
          "name": "exp",
          "type": "uint256"
        },
        {
          "internalType": "string",
          "name": "skill",
          "type": "string"
        }
      ],
      "name": "createAcc",
      "outputs": [],
      "stateMutability": "nonpayable",
      "type": "function"
    },
    {
      "inputs": [
        {
          "internalType": "uint256",
          "name": "jid",
          "type": "uint256"
        }
      ],
      "name": "Apply",
      "outputs": [],
      "stateMutability": "nonpayable",
      "type": "function"
    },
    {
      "inputs": [
        {
          "internalType": "uint256",
          "name": "jid",
          "type": "uint256"
        },
        {
          "internalType": "uint256",
          "name": "eid",
          "type": "uint256"
        }
      ],
      "name": "Hire",
      "outputs": [],
      "stateMutability": "nonpayable",
      "type": "function"
    },
    {
      "inputs": [],
      "name": "getbal",
      "outputs": [
        {
          "internalType": "uint256",
          "name": "",
          "type": "uint256"
        }
      ],
      "stateMutability": "view",
      "type": "function"
    },
    {
      "inputs": [],
      "name": "getcliants",
      "outputs": [
        {
          "internalType": "address payable[]",
          "name": "",
          "type": "address[]"
        }
      ],
      "stateMutability": "view",
      "type": "function"
    },
    {
      "inputs": [
        {
          "internalType": "uint256",
          "name": "eid",
          "type": "uint256"
        }
      ],
      "name": "pay",
      "outputs": [],
      "stateMutability": "payable",
      "type": "function"
    },
    {
      "inputs": [],
      "name": "getx",
      "outputs": [
        {
          "internalType": "uint256",
          "name": "",
          "type": "uint256"
        }
      ],
      "stateMutability": "view",
      "type": "function"
    }
  ],
  "bytecode": "0x6080604052600a805534801561001457600080fd5b5061211f806100246000396000f3fe6080604052600436106100fe5760003560e01c8063b0fa934a11610095578063e276c79911610064578063e276c7991461035e578063f0fc669d14610389578063f23ba8e6146103c6578063f9f83f5714610403578063ff3f56661461042e576100fe565b8063b0fa934a146102ae578063b5390183146102f0578063baca711214610319578063c290d69114610342576100fe565b80632fc96119116100d15780632fc96119146101d85780634ca1ac48146102015780635dc9c7a714610243578063818453931461026c576100fe565b80630c55699c146101035780631b3f4e071461012e5780631df39ba4146101595780632cc772f014610196575b600080fd5b34801561010f57600080fd5b5061011861046b565b60405161012591906115f5565b60405180910390f35b34801561013a57600080fd5b50610143610471565b60405161015091906115f5565b60405180910390f35b34801561016557600080fd5b50610180600480360381019061017b9190611650565b610479565b60405161018d91906116be565b60405180910390f35b3480156101a257600080fd5b506101bd60048036038101906101b89190611650565b6104b8565b6040516101cf9695949392919061178a565b60405180910390f35b3480156101e457600080fd5b506101ff60048036038101906101fa9190611650565b610734565b005b34801561020d57600080fd5b5061022860048036038101906102239190611833565b6107fa565b60405161023a96959493929190611860565b60405180910390f35b34801561024f57600080fd5b5061026a600480360381019061026591906118d6565b6109ee565b005b34801561027857600080fd5b50610293600480360381019061028e9190611916565b610a47565b6040516102a59695949392919061178a565b60405180910390f35b3480156102ba57600080fd5b506102d560048036038101906102d09190611650565b610cd0565b6040516102e796959493929190611860565b60405180910390f35b3480156102fc57600080fd5b5061031760048036038101906103129190611a8b565b610ec4565b005b34801561032557600080fd5b50610340600480360381019061033b9190611b5a565b611160565b005b61035c60048036038101906103579190611650565b611427565b005b34801561036a57600080fd5b506103736114bb565b60405161038091906115f5565b60405180910390f35b34801561039557600080fd5b506103b060048036038101906103ab9190611650565b6114c5565b6040516103bd91906116be565b60405180910390f35b3480156103d257600080fd5b506103ed60048036038101906103e89190611916565b611504565b6040516103fa91906115f5565b60405180910390f35b34801561040f57600080fd5b50610418611529565b6040516104259190611d03565b60405180910390f35b34801561043a57600080fd5b5061045560048036038101906104509190611d25565b6115b7565b60405161046291906115f5565b60405180910390f35b600a5481565b600047905090565b6000818154811061048957600080fd5b906000526020600020016000915054906101000a900473ffffffffffffffffffffffffffffffffffffffff1681565b60026020528060005260406000206000915090508060000160009054906101000a900473ffffffffffffffffffffffffffffffffffffffff169080600101805461050190611d94565b80601f016020809104026020016040519081016040528092919081815260200182805461052d90611d94565b801561057a5780601f1061054f5761010080835404028352916020019161057a565b820191906000526020600020905b81548152906001019060200180831161055d57829003601f168201915b50505050509080600201805461058f90611d94565b80601f01602080910402602001604051908101604052809291908181526020018280546105bb90611d94565b80156106085780601f106105dd57610100808354040283529160200191610608565b820191906000526020600020905b8154815290600101906020018083116105eb57829003601f168201915b50505050509080600301549080600401805461062390611d94565b80601f016020809104026020016040519081016040528092919081815260200182805461064f90611d94565b801561069c5780601f106106715761010080835404028352916020019161069c565b820191906000526020600020905b81548152906001019060200180831161067f57829003601f168201915b5050505050908060050180546106b190611d94565b80601f01602080910402602001604051908101604052809291908181526020018280546106dd90611d94565b801561072a5780601f106106ff5761010080835404028352916020019161072a565b820191906000526020600020905b81548152906001019060200180831161070d57829003601f168201915b5050505050905086565b600060026000838152602001908152602001600020905060008160000160009054906101000a900473ffffffffffffffffffffffffffffffffffffffff16905082600460003373ffffffffffffffffffffffffffffffffffffffff1673ffffffffffffffffffffffffffffffffffffffff16815260200190815260200160002060008373ffffffffffffffffffffffffffffffffffffffff1673ffffffffffffffffffffffffffffffffffffffff16815260200190815260200160002081905550505050565b60096020528060005260406000206000915090508060000160009054906101000a900473ffffffffffffffffffffffffffffffffffffffff169080600101805461084390611d94565b80601f016020809104026020016040519081016040528092919081815260200182805461086f90611d94565b80156108bc5780601f10610891576101008083540402835291602001916108bc565b820191906000526020600020905b81548152906001019060200180831161089f57829003601f168201915b5050505050908060020154908060030180546108d790611d94565b80601f016020809104026020016040519081016040528092919081815260200182805461090390611d94565b80156109505780601f1061092557610100808354040283529160200191610950565b820191906000526020600020905b81548152906001019060200180831161093357829003601f168201915b50505050509080600401549080600501805461096b90611d94565b80601f016020809104026020016040519081016040528092919081815260200182805461099790611d94565b80156109e45780601f106109b9576101008083540402835291602001916109e4565b820191906000526020600020905b8154815290600101906020018083116109c757829003601f168201915b5050505050905086565b80600560003373ffffffffffffffffffffffffffffffffffffffff1673ffffffffffffffffffffffffffffffffffffffff1681526020019081526020016000206000848152602001908152602001600020819055505050565b6008602052816000526040600020602052806000526040600020600091509150508060000160009054906101000a900473ffffffffffffffffffffffffffffffffffffffff1690806001018054610a9d90611d94565b80601f0160208091040260200160405190810160405280929190818152602001828054610ac990611d94565b8015610b165780601f10610aeb57610100808354040283529160200191610b16565b820191906000526020600020905b815481529060010190602001808311610af957829003601f168201915b505050505090806002018054610b2b90611d94565b80601f0160208091040260200160405190810160405280929190818152602001828054610b5790611d94565b8015610ba45780601f10610b7957610100808354040283529160200191610ba4565b820191906000526020600020905b815481529060010190602001808311610b8757829003601f168201915b505050505090806003015490806004018054610bbf90611d94565b80601f0160208091040260200160405190810160405280929190818152602001828054610beb90611d94565b8015610c385780601f10610c0d57610100808354040283529160200191610c38565b820191906000526020600020905b815481529060010190602001808311610c1b57829003601f168201915b505050505090806005018054610c4d90611d94565b80601f0160208091040260200160405190810160405280929190818152602001828054610c7990611d94565b8015610cc65780601f10610c9b57610100808354040283529160200191610cc6565b820191906000526020600020905b815481529060010190602001808311610ca957829003601f168201915b5050505050905086565b60036020528060005260406000206000915090508060000160009054906101000a900473ffffffffffffffffffffffffffffffffffffffff1690806001018054610d1990611d94565b80601f0160208091040260200160405190810160405280929190818152602001828054610d4590611d94565b8015610d925780601f10610d6757610100808354040283529160200191610d92565b820191906000526020600020905b815481529060010190602001808311610d7557829003601f168201915b505050505090806002015490806003018054610dad90611d94565b80601f0160208091040260200160405190810160405280929190818152602001828054610dd990611d94565b8015610e265780601f10610dfb57610100808354040283529160200191610e26565b820191906000526020600020905b815481529060010190602001808311610e0957829003601f168201915b505050505090806004015490806005018054610e4190611d94565b80601f0160208091040260200160405190810160405280929190818152602001828054610e6d90611d94565b8015610eba5780601f10610e8f57610100808354040283529160200191610eba565b820191906000526020600020905b815481529060010190602001808311610e9d57829003601f168201915b5050505050905086565b6040518060c001604052803373ffffffffffffffffffffffffffffffffffffffff1681526020018681526020018581526020018481526020018381526020018281525060036000600754815260200190815260200160002060008201518160000160006101000a81548173ffffffffffffffffffffffffffffffffffffffff021916908373ffffffffffffffffffffffffffffffffffffffff1602179055506020820151816001019081610f789190611f71565b50604082015181600201556060820151816003019081610f989190611f71565b506080820151816004015560a0820151816005019081610fb89190611f71565b5090505060076000815480929190610fcf90612072565b91905055506000339080600181540180825580915050600190039060005260206000200160009091909190916101000a81548173ffffffffffffffffffffffffffffffffffffffff021916908373ffffffffffffffffffffffffffffffffffffffff1602179055506040518060c001604052803373ffffffffffffffffffffffffffffffffffffffff16815260200186815260200185815260200184815260200183815260200182815250600960003373ffffffffffffffffffffffffffffffffffffffff1673ffffffffffffffffffffffffffffffffffffffff16815260200190815260200160002060008201518160000160006101000a81548173ffffffffffffffffffffffffffffffffffffffff021916908373ffffffffffffffffffffffffffffffffffffffff16021790555060208201518160010190816111159190611f71565b506040820151816002015560608201518160030190816111359190611f71565b506080820151816004015560a08201518160050190816111559190611f71565b509050505050505050565b6040518060c001604052803373ffffffffffffffffffffffffffffffffffffffff1681526020018681526020018581526020018481526020018381526020018281525060026000600654815260200190815260200160002060008201518160000160006101000a81548173ffffffffffffffffffffffffffffffffffffffff021916908373ffffffffffffffffffffffffffffffffffffffff16021790555060208201518160010190816112149190611f71565b50604082015181600201908161122a9190611f71565b5060608201518160030155608082015181600401908161124a9190611f71565b5060a08201518160050190816112609190611f71565b509050506040518060c001604052803373ffffffffffffffffffffffffffffffffffffffff16815260200186815260200185815260200184815260200183815260200182815250600860003373ffffffffffffffffffffffffffffffffffffffff1673ffffffffffffffffffffffffffffffffffffffff1681526020019081526020016000206000600654815260200190815260200160002060008201518160000160006101000a81548173ffffffffffffffffffffffffffffffffffffffff021916908373ffffffffffffffffffffffffffffffffffffffff16021790555060208201518160010190816113559190611f71565b50604082015181600201908161136b9190611f71565b5060608201518160030155608082015181600401908161138b9190611f71565b5060a08201518160050190816113a19190611f71565b50905050600660008154809291906113b890612072565b91905055506001339080600181540180825580915050600190039060005260206000200160009091909190916101000a81548173ffffffffffffffffffffffffffffffffffffffff021916908373ffffffffffffffffffffffffffffffffffffffff1602179055505050505050565b600080828154811061143c5761143b6120ba565b5b9060005260206000200160009054906101000a900473ffffffffffffffffffffffffffffffffffffffff1690508073ffffffffffffffffffffffffffffffffffffffff166108fc61148b610471565b9081150290604051600060405180830381858888f193505050501580156114b6573d6000803e3d6000fd5b505050565b6000600a54905090565b600181815481106114d557600080fd5b906000526020600020016000915054906101000a900473ffffffffffffffffffffffffffffffffffffffff1681565b6005602052816000526040600020602052806000526040600020600091509150505481565b606060018054806020026020016040519081016040528092919081815260200182805480156115ad57602002820191906000526020600020905b8160009054906101000a900473ffffffffffffffffffffffffffffffffffffffff1673ffffffffffffffffffffffffffffffffffffffff1681526020019060010190808311611563575b5050505050905090565b6004602052816000526040600020602052806000526040600020600091509150505481565b6000819050919050565b6115ef816115dc565b82525050565b600060208201905061160a60008301846115e6565b92915050565b6000604051905090565b600080fd5b600080fd5b61162d816115dc565b811461163857600080fd5b50565b60008135905061164a81611624565b92915050565b6000602082840312156116665761166561161a565b5b60006116748482850161163b565b91505092915050565b600073ffffffffffffffffffffffffffffffffffffffff82169050919050565b60006116a88261167d565b9050919050565b6116b88161169d565b82525050565b60006020820190506116d360008301846116af565b92915050565b60006116e48261167d565b9050919050565b6116f4816116d9565b82525050565b600081519050919050565b600082825260208201905092915050565b60005b83811015611734578082015181840152602081019050611719565b60008484015250505050565b6000601f19601f8301169050919050565b600061175c826116fa565b6117668185611705565b9350611776818560208601611716565b61177f81611740565b840191505092915050565b600060c08201905061179f60008301896116eb565b81810360208301526117b18188611751565b905081810360408301526117c58187611751565b90506117d460608301866115e6565b81810360808301526117e68185611751565b905081810360a08301526117fa8184611751565b9050979650505050505050565b611810816116d9565b811461181b57600080fd5b50565b60008135905061182d81611807565b92915050565b6000602082840312156118495761184861161a565b5b60006118578482850161181e565b91505092915050565b600060c08201905061187560008301896116eb565b81810360208301526118878188611751565b905061189660408301876115e6565b81810360608301526118a88186611751565b90506118b760808301856115e6565b81810360a08301526118c98184611751565b9050979650505050505050565b600080604083850312156118ed576118ec61161a565b5b60006118fb8582860161163b565b925050602061190c8582860161163b565b9150509250929050565b6000806040838503121561192d5761192c61161a565b5b600061193b8582860161181e565b925050602061194c8582860161163b565b9150509250929050565b600080fd5b600080fd5b7f4e487b7100000000000000000000000000000000000000000000000000000000600052604160045260246000fd5b61199882611740565b810181811067ffffffffffffffff821117156119b7576119b6611960565b5b80604052505050565b60006119ca611610565b90506119d6828261198f565b919050565b600067ffffffffffffffff8211156119f6576119f5611960565b5b6119ff82611740565b9050602081019050919050565b82818337600083830152505050565b6000611a2e611a29846119db565b6119c0565b905082815260208101848484011115611a4a57611a4961195b565b5b611a55848285611a0c565b509392505050565b600082601f830112611a7257611a71611956565b5b8135611a82848260208601611a1b565b91505092915050565b600080600080600060a08688031215611aa757611aa661161a565b5b600086013567ffffffffffffffff811115611ac557611ac461161f565b5b611ad188828901611a5d565b9550506020611ae28882890161163b565b945050604086013567ffffffffffffffff811115611b0357611b0261161f565b5b611b0f88828901611a5d565b9350506060611b208882890161163b565b925050608086013567ffffffffffffffff811115611b4157611b4061161f565b5b611b4d88828901611a5d565b9150509295509295909350565b600080600080600060a08688031215611b7657611b7561161a565b5b600086013567ffffffffffffffff811115611b9457611b9361161f565b5b611ba088828901611a5d565b955050602086013567ffffffffffffffff811115611bc157611bc061161f565b5b611bcd88828901611a5d565b9450506040611bde8882890161163b565b935050606086013567ffffffffffffffff811115611bff57611bfe61161f565b5b611c0b88828901611a5d565b925050608086013567ffffffffffffffff811115611c2c57611c2b61161f565b5b611c3888828901611a5d565b9150509295509295909350565b600081519050919050565b600082825260208201905092915050565b6000819050602082019050919050565b611c7a8161169d565b82525050565b6000611c8c8383611c71565b60208301905092915050565b6000602082019050919050565b6000611cb082611c45565b611cba8185611c50565b9350611cc583611c61565b8060005b83811015611cf6578151611cdd8882611c80565b9750611ce883611c98565b925050600181019050611cc9565b5085935050505092915050565b60006020820190508181036000830152611d1d8184611ca5565b905092915050565b60008060408385031215611d3c57611d3b61161a565b5b6000611d4a8582860161181e565b9250506020611d5b8582860161181e565b9150509250929050565b7f4e487b7100000000000000000000000000000000000000000000000000000000600052602260045260246000fd5b60006002820490506001821680611dac57607f821691505b602082108103611dbf57611dbe611d65565b5b50919050565b60008190508160005260206000209050919050565b60006020601f8301049050919050565b600082821b905092915050565b600060088302611e277fffffffffffffffffffffffffffffffffffffffffffffffffffffffffffffffff82611dea565b611e318683611dea565b95508019841693508086168417925050509392505050565b6000819050919050565b6000611e6e611e69611e64846115dc565b611e49565b6115dc565b9050919050565b6000819050919050565b611e8883611e53565b611e9c611e9482611e75565b848454611df7565b825550505050565b600090565b611eb1611ea4565b611ebc818484611e7f565b505050565b5b81811015611ee057611ed5600082611ea9565b600181019050611ec2565b5050565b601f821115611f2557611ef681611dc5565b611eff84611dda565b81016020851015611f0e578190505b611f22611f1a85611dda565b830182611ec1565b50505b505050565b600082821c905092915050565b6000611f4860001984600802611f2a565b1980831691505092915050565b6000611f618383611f37565b9150826002028217905092915050565b611f7a826116fa565b67ffffffffffffffff811115611f9357611f92611960565b5b611f9d8254611d94565b611fa8828285611ee4565b600060209050601f831160018114611fdb5760008415611fc9578287015190505b611fd38582611f55565b86555061203b565b601f198416611fe986611dc5565b60005b8281101561201157848901518255600182019150602085019450602081019050611fec565b8683101561202e578489015161202a601f891682611f37565b8355505b6001600288020188555050505b505050505050565b7f4e487b7100000000000000000000000000000000000000000000000000000000600052601160045260246000fd5b600061207d826115dc565b91507fffffffffffffffffffffffffffffffffffffffffffffffffffffffffffffffff82036120af576120ae612043565b5b600182019050919050565b7f4e487b7100000000000000000000000000000000000000000000000000000000600052603260045260246000fdfea26469706673582212202b8a3869f77f8f531adcf7f0ff412668e01227ca1687502a4a186428d724bcc764736f6c63430008130033",
  "immutableReferences": {},
  "source": "// SPDX-License-Identifier: GPL-3.0\n\npragma solidity >= 0.5.0 <0.9.0;\n\ncontract Djob{\n    address payable[] public empssss;\n    struct job{\n        address employer;\n        string jname;\n        string jobDesc;\n        uint budget;\n        string jlocation;\n        string jmode;\n    }\n\n    struct emp{\n        address employee;\n        string name;\n        uint age;\n        string role;\n        uint yearsofexperiance;\n        string skills;\n    }\n\n    address payable[] public cliants;\n\n    mapping(uint=>job)public Jobs;\n    mapping(uint=>emp)public Emps;\n    mapping(address=>mapping(address=>uint)) public applied;\n    mapping(address=>mapping(uint=>uint)) public hire;\n\n    uint nextID;\n    uint nextEID;\n\n    mapping(address=>mapping(uint=>job))public jobdetails;\n    mapping(address=>emp)public empdetails;\n\n    function postjob(string memory name,string memory jdesc,uint budjet,string memory jloc,string memory jmode) external{\n        Jobs[nextID]=job(msg.sender,name,jdesc,budjet,jloc,jmode);\n        jobdetails[msg.sender][nextID]=job(msg.sender,name,jdesc,budjet,jloc,jmode);\n        nextID++;\n        cliants.push(payable(msg.sender));\n\n        \n    }\n\n    function createAcc(string memory name,uint age,string memory role,uint exp,string memory skill) external{\n        Emps[nextEID]=emp(msg.sender,name,age,role,exp,skill);\n        nextEID++;\n        empssss.push(payable(msg.sender));\n        empdetails[msg.sender]=emp(msg.sender,name,age,role,exp,skill);\n    }\n\n    function Apply(uint jid) external{\n\n        job storage _job =Jobs[jid];\n        address emplr=_job.employer;\n\n        applied[msg.sender][emplr]=jid;\n        \n    }\n\n    function Hire(uint jid,uint eid) external{\n\n        // emp storage _emp =Emps[eid];\n        // address emple=_emp.employee;\n\n        hire[msg.sender][jid]=eid;\n        \n    }\n\n    function getbal() public view returns(uint){\n        return address(this).balance;\n    }\n\n    function getcliants() public view returns(address payable[] memory){\n\n        return cliants;\n    }\n\n    function pay(uint eid) external payable{\n        \n        address payable empewhodonejob;\n\n        empewhodonejob=empssss[eid];\n\n        empewhodonejob.transfer(getbal());\n    }\n\n    //     function getJobs(uint cnt) public view returns(job) {\n    //         job =Jobs[cnt]\n    //     return Jobs[cnt];\n    // }\n\n        uint public x=10 ;\n        function getx() public view returns(uint) {\n            return x;\n\n        }\n\n\n\n\n\n}\n\n// 0x2731685d9EdD773FB5554Da87C4580790E310D18\n\n// ganache contract address0xB4c04f83FeAcbcEA703e6aB9C9311921E3817619",
  "sourcePath": "C:\\Users\\91993\\Desktop\\Blockchain\\Acm\\web3lab-lottery\\contracts\\d-Job.sol",
  "compiler": {
    "name": "solc",
    "version": "0.8.19+commit.7dd6d404.Emscripten.clang"
  },
  "schemaVersion": "3.4.13",
  "updatedAt": "2023-03-16T19:03:57.936Z",
  "devdoc": {
    "kind": "dev",
    "methods": {},
    "version": 1
  },
  "userdoc": {
    "kind": "user",
    "methods": {},
    "version": 1
  }
}