{
  "contractName": "Djob",
  "abi": [
    {
      "inputs": [
        {
          "internalType": "uint256",
          "name": "",
          "type": "uint256"
        }
      ],
      "name": "Emps",
      "outputs": [
        {
          "internalType": "address",
          "name": "employee",
          "type": "address"
        },
        {
          "internalType": "string",
          "name": "name",
          "type": "string"
        },
        {
          "internalType": "uint256",
          "name": "age",
          "type": "uint256"
        },
        {
          "internalType": "string",
          "name": "role",
          "type": "string"
        },
        {
          "internalType": "uint256",
          "name": "yearsofexperiance",
          "type": "uint256"
        },
        {
          "internalType": "string",
          "name": "skills",
          "type": "string"
        }
      ],
      "stateMutability": "view",
      "type": "function"
    },
    {
      "inputs": [
        {
          "internalType": "uint256",
          "name": "",
          "type": "uint256"
        }
      ],
      "name": "Jobs",
      "outputs": [
        {
          "internalType": "address",
          "name": "employer",
          "type": "address"
        },
        {
          "internalType": "string",
          "name": "jname",
          "type": "string"
        },
        {
          "internalType": "string",
          "name": "jobDesc",
          "type": "string"
        },
        {
          "internalType": "uint256",
          "name": "budget",
          "type": "uint256"
        },
        {
          "internalType": "string",
          "name": "jlocation",
          "type": "string"
        },
        {
          "internalType": "string",
          "name": "jmode",
          "type": "string"
        }
      ],
      "stateMutability": "view",
      "type": "function"
    },
    {
      "inputs": [
        {
          "internalType": "address",
          "name": "",
          "type": "address"
        },
        {
          "internalType": "address",
          "name": "",
          "type": "address"
        }
      ],
      "name": "applied",
      "outputs": [
        {
          "internalType": "uint256",
          "name": "",
          "type": "uint256"
        }
      ],
      "stateMutability": "view",
      "type": "function"
    },
    {
      "inputs": [
        {
          "internalType": "address",
          "name": "",
          "type": "address"
        }
      ],
      "name": "empdetails",
      "outputs": [
        {
          "internalType": "address",
          "name": "employee",
          "type": "address"
        },
        {
          "internalType": "string",
          "name": "name",
          "type": "string"
        },
        {
          "internalType": "uint256",
          "name": "age",
          "type": "uint256"
        },
        {
          "internalType": "string",
          "name": "role",
          "type": "string"
        },
        {
          "internalType": "uint256",
          "name": "yearsofexperiance",
          "type": "uint256"
        },
        {
          "internalType": "string",
          "name": "skills",
          "type": "string"
        }
      ],
      "stateMutability": "view",
      "type": "function"
    },
    {
      "inputs": [
        {
          "internalType": "uint256",
          "name": "",
          "type": "uint256"
        }
      ],
      "name": "empssss",
      "outputs": [
        {
          "internalType": "address payable",
          "name": "",
          "type": "address"
        }
      ],
      "stateMutability": "view",
      "type": "function"
    },
    {
      "inputs": [
        {
          "internalType": "address",
          "name": "",
          "type": "address"
        },
        {
          "internalType": "uint256",
          "name": "",
          "type": "uint256"
        }
      ],
      "name": "hire",
      "outputs": [
        {
          "internalType": "uint256",
          "name": "",
          "type": "uint256"
        }
      ],
      "stateMutability": "view",
      "type": "function"
    },
    {
      "inputs": [
        {
          "internalType": "address",
          "name": "",
          "type": "address"
        },
        {
          "internalType": "uint256",
          "name": "",
          "type": "uint256"
        }
      ],
      "name": "jobdetails",
      "outputs": [
        {
          "internalType": "address",
          "name": "employer",
          "type": "address"
        },
        {
          "internalType": "string",
          "name": "jname",
          "type": "string"
        },
        {
          "internalType": "string",
          "name": "jobDesc",
          "type": "string"
        },
        {
          "internalType": "uint256",
          "name": "budget",
          "type": "uint256"
        },
        {
          "internalType": "string",
          "name": "jlocation",
          "type": "string"
        },
        {
          "internalType": "string",
          "name": "jmode",
          "type": "string"
        }
      ],
      "stateMutability": "view",
      "type": "function"
    },
    {
      "inputs": [
        {
          "internalType": "string",
          "name": "name",
          "type": "string"
        },
        {
          "internalType": "string",
          "name": "jdesc",
          "type": "string"
        },
        {
          "internalType": "uint256",
          "name": "budjet",
          "type": "uint256"
        },
        {
          "internalType": "string",
          "name": "jloc",
          "type": "string"
        },
        {
          "internalType": "string",
          "name": "jmode",
          "type": "string"
        }
      ],
      "name": "postjob",
      "outputs": [],
      "stateMutability": "nonpayable",
      "type": "function"
    },
    {
      "inputs": [
        {
          "internalType": "string",
          "name": "name",
          "type": "string"
        },
        {
          "internalType": "uint256",
          "name": "age",
          "type": "uint256"
        },
        {
          "internalType": "string",
          "name": "role",
          "type": "string"
        },
        {
          "internalType": "uint256",
          "name": "exp",
          "type": "uint256"
        },
        {
          "internalType": "string",
          "name": "skill",
          "type": "string"
        }
      ],
      "name": "createAcc",
      "outputs": [],
      "stateMutability": "nonpayable",
      "type": "function"
    },
    {
      "inputs": [
        {
          "internalType": "uint256",
          "name": "jid",
          "type": "uint256"
        }
      ],
      "name": "Apply",
      "outputs": [],
      "stateMutability": "nonpayable",
      "type": "function"
    },
    {
      "inputs": [
        {
          "internalType": "uint256",
          "name": "jid",
          "type": "uint256"
        },
        {
          "internalType": "uint256",
          "name": "eid",
          "type": "uint256"
        }
      ],
      "name": "Hire",
      "outputs": [],
      "stateMutability": "nonpayable",
      "type": "function"
    },
    {
      "inputs": [],
      "name": "getbal",
      "outputs": [
        {
          "internalType": "uint256",
          "name": "",
          "type": "uint256"
        }
      ],
      "stateMutability": "view",
      "type": "function"
    },
    {
      "inputs": [
        {
          "internalType": "uint256",
          "name": "eid",
          "type": "uint256"
        }
      ],
      "name": "pay",
      "outputs": [],
      "stateMutability": "payable",
      "type": "function"
    }
  ],
  "bytecode": "0x608060405234801561001057600080fd5b50611e05806100206000396000f3fe6080604052600436106100c25760003560e01c8063818453931161007f578063baca711211610059578063baca7112146102b2578063c290d691146102db578063f23ba8e6146102f7578063ff3f566614610334576100c2565b80638184539314610205578063b0fa934a14610247578063b539018314610289576100c2565b80631b3f4e07146100c75780631df39ba4146100f25780632cc772f01461012f5780632fc96119146101715780634ca1ac481461019a5780635dc9c7a7146101dc575b600080fd5b3480156100d357600080fd5b506100dc610371565b6040516100e991906113bb565b60405180910390f35b3480156100fe57600080fd5b5061011960048036038101906101149190611416565b610379565b6040516101269190611484565b60405180910390f35b34801561013b57600080fd5b5061015660048036038101906101519190611416565b6103b8565b60405161016896959493929190611550565b60405180910390f35b34801561017d57600080fd5b5061019860048036038101906101939190611416565b610634565b005b3480156101a657600080fd5b506101c160048036038101906101bc91906115f9565b6106fa565b6040516101d396959493929190611626565b60405180910390f35b3480156101e857600080fd5b5061020360048036038101906101fe919061169c565b6108ee565b005b34801561021157600080fd5b5061022c600480360381019061022791906116dc565b610947565b60405161023e96959493929190611550565b60405180910390f35b34801561025357600080fd5b5061026e60048036038101906102699190611416565b610bd0565b60405161028096959493929190611626565b60405180910390f35b34801561029557600080fd5b506102b060048036038101906102ab9190611851565b610dc4565b005b3480156102be57600080fd5b506102d960048036038101906102d49190611920565b611060565b005b6102f560048036038101906102f09190611416565b6112c4565b005b34801561030357600080fd5b5061031e600480360381019061031991906116dc565b611358565b60405161032b91906113bb565b60405180910390f35b34801561034057600080fd5b5061035b60048036038101906103569190611a0b565b61137d565b60405161036891906113bb565b60405180910390f35b600047905090565b6000818154811061038957600080fd5b906000526020600020016000915054906101000a900473ffffffffffffffffffffffffffffffffffffffff1681565b60016020528060005260406000206000915090508060000160009054906101000a900473ffffffffffffffffffffffffffffffffffffffff169080600101805461040190611a7a565b80601f016020809104026020016040519081016040528092919081815260200182805461042d90611a7a565b801561047a5780601f1061044f5761010080835404028352916020019161047a565b820191906000526020600020905b81548152906001019060200180831161045d57829003601f168201915b50505050509080600201805461048f90611a7a565b80601f01602080910402602001604051908101604052809291908181526020018280546104bb90611a7a565b80156105085780601f106104dd57610100808354040283529160200191610508565b820191906000526020600020905b8154815290600101906020018083116104eb57829003601f168201915b50505050509080600301549080600401805461052390611a7a565b80601f016020809104026020016040519081016040528092919081815260200182805461054f90611a7a565b801561059c5780601f106105715761010080835404028352916020019161059c565b820191906000526020600020905b81548152906001019060200180831161057f57829003601f168201915b5050505050908060050180546105b190611a7a565b80601f01602080910402602001604051908101604052809291908181526020018280546105dd90611a7a565b801561062a5780601f106105ff5761010080835404028352916020019161062a565b820191906000526020600020905b81548152906001019060200180831161060d57829003601f168201915b5050505050905086565b600060016000838152602001908152602001600020905060008160000160009054906101000a900473ffffffffffffffffffffffffffffffffffffffff16905082600360003373ffffffffffffffffffffffffffffffffffffffff1673ffffffffffffffffffffffffffffffffffffffff16815260200190815260200160002060008373ffffffffffffffffffffffffffffffffffffffff1673ffffffffffffffffffffffffffffffffffffffff16815260200190815260200160002081905550505050565b60086020528060005260406000206000915090508060000160009054906101000a900473ffffffffffffffffffffffffffffffffffffffff169080600101805461074390611a7a565b80601f016020809104026020016040519081016040528092919081815260200182805461076f90611a7a565b80156107bc5780601f10610791576101008083540402835291602001916107bc565b820191906000526020600020905b81548152906001019060200180831161079f57829003601f168201915b5050505050908060020154908060030180546107d790611a7a565b80601f016020809104026020016040519081016040528092919081815260200182805461080390611a7a565b80156108505780601f1061082557610100808354040283529160200191610850565b820191906000526020600020905b81548152906001019060200180831161083357829003601f168201915b50505050509080600401549080600501805461086b90611a7a565b80601f016020809104026020016040519081016040528092919081815260200182805461089790611a7a565b80156108e45780601f106108b9576101008083540402835291602001916108e4565b820191906000526020600020905b8154815290600101906020018083116108c757829003601f168201915b5050505050905086565b80600460003373ffffffffffffffffffffffffffffffffffffffff1673ffffffffffffffffffffffffffffffffffffffff1681526020019081526020016000206000848152602001908152602001600020819055505050565b6007602052816000526040600020602052806000526040600020600091509150508060000160009054906101000a900473ffffffffffffffffffffffffffffffffffffffff169080600101805461099d90611a7a565b80601f01602080910402602001604051908101604052809291908181526020018280546109c990611a7a565b8015610a165780601f106109eb57610100808354040283529160200191610a16565b820191906000526020600020905b8154815290600101906020018083116109f957829003601f168201915b505050505090806002018054610a2b90611a7a565b80601f0160208091040260200160405190810160405280929190818152602001828054610a5790611a7a565b8015610aa45780601f10610a7957610100808354040283529160200191610aa4565b820191906000526020600020905b815481529060010190602001808311610a8757829003601f168201915b505050505090806003015490806004018054610abf90611a7a565b80601f0160208091040260200160405190810160405280929190818152602001828054610aeb90611a7a565b8015610b385780601f10610b0d57610100808354040283529160200191610b38565b820191906000526020600020905b815481529060010190602001808311610b1b57829003601f168201915b505050505090806005018054610b4d90611a7a565b80601f0160208091040260200160405190810160405280929190818152602001828054610b7990611a7a565b8015610bc65780601f10610b9b57610100808354040283529160200191610bc6565b820191906000526020600020905b815481529060010190602001808311610ba957829003601f168201915b5050505050905086565b60026020528060005260406000206000915090508060000160009054906101000a900473ffffffffffffffffffffffffffffffffffffffff1690806001018054610c1990611a7a565b80601f0160208091040260200160405190810160405280929190818152602001828054610c4590611a7a565b8015610c925780601f10610c6757610100808354040283529160200191610c92565b820191906000526020600020905b815481529060010190602001808311610c7557829003601f168201915b505050505090806002015490806003018054610cad90611a7a565b80601f0160208091040260200160405190810160405280929190818152602001828054610cd990611a7a565b8015610d265780601f10610cfb57610100808354040283529160200191610d26565b820191906000526020600020905b815481529060010190602001808311610d0957829003601f168201915b505050505090806004015490806005018054610d4190611a7a565b80601f0160208091040260200160405190810160405280929190818152602001828054610d6d90611a7a565b8015610dba5780601f10610d8f57610100808354040283529160200191610dba565b820191906000526020600020905b815481529060010190602001808311610d9d57829003601f168201915b5050505050905086565b6040518060c001604052803373ffffffffffffffffffffffffffffffffffffffff1681526020018681526020018581526020018481526020018381526020018281525060026000600654815260200190815260200160002060008201518160000160006101000a81548173ffffffffffffffffffffffffffffffffffffffff021916908373ffffffffffffffffffffffffffffffffffffffff1602179055506020820151816001019081610e789190611c57565b50604082015181600201556060820151816003019081610e989190611c57565b506080820151816004015560a0820151816005019081610eb89190611c57565b5090505060066000815480929190610ecf90611d58565b91905055506000339080600181540180825580915050600190039060005260206000200160009091909190916101000a81548173ffffffffffffffffffffffffffffffffffffffff021916908373ffffffffffffffffffffffffffffffffffffffff1602179055506040518060c001604052803373ffffffffffffffffffffffffffffffffffffffff16815260200186815260200185815260200184815260200183815260200182815250600860003373ffffffffffffffffffffffffffffffffffffffff1673ffffffffffffffffffffffffffffffffffffffff16815260200190815260200160002060008201518160000160006101000a81548173ffffffffffffffffffffffffffffffffffffffff021916908373ffffffffffffffffffffffffffffffffffffffff16021790555060208201518160010190816110159190611c57565b506040820151816002015560608201518160030190816110359190611c57565b506080820151816004015560a08201518160050190816110559190611c57565b509050505050505050565b6040518060c001604052803373ffffffffffffffffffffffffffffffffffffffff1681526020018681526020018581526020018481526020018381526020018281525060016000600554815260200190815260200160002060008201518160000160006101000a81548173ffffffffffffffffffffffffffffffffffffffff021916908373ffffffffffffffffffffffffffffffffffffffff16021790555060208201518160010190816111149190611c57565b50604082015181600201908161112a9190611c57565b5060608201518160030155608082015181600401908161114a9190611c57565b5060a08201518160050190816111609190611c57565b509050506040518060c001604052803373ffffffffffffffffffffffffffffffffffffffff16815260200186815260200185815260200184815260200183815260200182815250600760003373ffffffffffffffffffffffffffffffffffffffff1673ffffffffffffffffffffffffffffffffffffffff1681526020019081526020016000206000600554815260200190815260200160002060008201518160000160006101000a81548173ffffffffffffffffffffffffffffffffffffffff021916908373ffffffffffffffffffffffffffffffffffffffff16021790555060208201518160010190816112559190611c57565b50604082015181600201908161126b9190611c57565b5060608201518160030155608082015181600401908161128b9190611c57565b5060a08201518160050190816112a19190611c57565b50905050600560008154809291906112b890611d58565b91905055505050505050565b60008082815481106112d9576112d8611da0565b5b9060005260206000200160009054906101000a900473ffffffffffffffffffffffffffffffffffffffff1690508073ffffffffffffffffffffffffffffffffffffffff166108fc611328610371565b9081150290604051600060405180830381858888f19350505050158015611353573d6000803e3d6000fd5b505050565b6004602052816000526040600020602052806000526040600020600091509150505481565b6003602052816000526040600020602052806000526040600020600091509150505481565b6000819050919050565b6113b5816113a2565b82525050565b60006020820190506113d060008301846113ac565b92915050565b6000604051905090565b600080fd5b600080fd5b6113f3816113a2565b81146113fe57600080fd5b50565b600081359050611410816113ea565b92915050565b60006020828403121561142c5761142b6113e0565b5b600061143a84828501611401565b91505092915050565b600073ffffffffffffffffffffffffffffffffffffffff82169050919050565b600061146e82611443565b9050919050565b61147e81611463565b82525050565b60006020820190506114996000830184611475565b92915050565b60006114aa82611443565b9050919050565b6114ba8161149f565b82525050565b600081519050919050565b600082825260208201905092915050565b60005b838110156114fa5780820151818401526020810190506114df565b60008484015250505050565b6000601f19601f8301169050919050565b6000611522826114c0565b61152c81856114cb565b935061153c8185602086016114dc565b61154581611506565b840191505092915050565b600060c08201905061156560008301896114b1565b81810360208301526115778188611517565b9050818103604083015261158b8187611517565b905061159a60608301866113ac565b81810360808301526115ac8185611517565b905081810360a08301526115c08184611517565b9050979650505050505050565b6115d68161149f565b81146115e157600080fd5b50565b6000813590506115f3816115cd565b92915050565b60006020828403121561160f5761160e6113e0565b5b600061161d848285016115e4565b91505092915050565b600060c08201905061163b60008301896114b1565b818103602083015261164d8188611517565b905061165c60408301876113ac565b818103606083015261166e8186611517565b905061167d60808301856113ac565b81810360a083015261168f8184611517565b9050979650505050505050565b600080604083850312156116b3576116b26113e0565b5b60006116c185828601611401565b92505060206116d285828601611401565b9150509250929050565b600080604083850312156116f3576116f26113e0565b5b6000611701858286016115e4565b925050602061171285828601611401565b9150509250929050565b600080fd5b600080fd5b7f4e487b7100000000000000000000000000000000000000000000000000000000600052604160045260246000fd5b61175e82611506565b810181811067ffffffffffffffff8211171561177d5761177c611726565b5b80604052505050565b60006117906113d6565b905061179c8282611755565b919050565b600067ffffffffffffffff8211156117bc576117bb611726565b5b6117c582611506565b9050602081019050919050565b82818337600083830152505050565b60006117f46117ef846117a1565b611786565b9050828152602081018484840111156118105761180f611721565b5b61181b8482856117d2565b509392505050565b600082601f8301126118385761183761171c565b5b81356118488482602086016117e1565b91505092915050565b600080600080600060a0868803121561186d5761186c6113e0565b5b600086013567ffffffffffffffff81111561188b5761188a6113e5565b5b61189788828901611823565b95505060206118a888828901611401565b945050604086013567ffffffffffffffff8111156118c9576118c86113e5565b5b6118d588828901611823565b93505060606118e688828901611401565b925050608086013567ffffffffffffffff811115611907576119066113e5565b5b61191388828901611823565b9150509295509295909350565b600080600080600060a0868803121561193c5761193b6113e0565b5b600086013567ffffffffffffffff81111561195a576119596113e5565b5b61196688828901611823565b955050602086013567ffffffffffffffff811115611987576119866113e5565b5b61199388828901611823565b94505060406119a488828901611401565b935050606086013567ffffffffffffffff8111156119c5576119c46113e5565b5b6119d188828901611823565b925050608086013567ffffffffffffffff8111156119f2576119f16113e5565b5b6119fe88828901611823565b9150509295509295909350565b60008060408385031215611a2257611a216113e0565b5b6000611a30858286016115e4565b9250506020611a41858286016115e4565b9150509250929050565b7f4e487b7100000000000000000000000000000000000000000000000000000000600052602260045260246000fd5b60006002820490506001821680611a9257607f821691505b602082108103611aa557611aa4611a4b565b5b50919050565b60008190508160005260206000209050919050565b60006020601f8301049050919050565b600082821b905092915050565b600060088302611b0d7fffffffffffffffffffffffffffffffffffffffffffffffffffffffffffffffff82611ad0565b611b178683611ad0565b95508019841693508086168417925050509392505050565b6000819050919050565b6000611b54611b4f611b4a846113a2565b611b2f565b6113a2565b9050919050565b6000819050919050565b611b6e83611b39565b611b82611b7a82611b5b565b848454611add565b825550505050565b600090565b611b97611b8a565b611ba2818484611b65565b505050565b5b81811015611bc657611bbb600082611b8f565b600181019050611ba8565b5050565b601f821115611c0b57611bdc81611aab565b611be584611ac0565b81016020851015611bf4578190505b611c08611c0085611ac0565b830182611ba7565b50505b505050565b600082821c905092915050565b6000611c2e60001984600802611c10565b1980831691505092915050565b6000611c478383611c1d565b9150826002028217905092915050565b611c60826114c0565b67ffffffffffffffff811115611c7957611c78611726565b5b611c838254611a7a565b611c8e828285611bca565b600060209050601f831160018114611cc15760008415611caf578287015190505b611cb98582611c3b565b865550611d21565b601f198416611ccf86611aab565b60005b82811015611cf757848901518255600182019150602085019450602081019050611cd2565b86831015611d145784890151611d10601f891682611c1d565b8355505b6001600288020188555050505b505050505050565b7f4e487b7100000000000000000000000000000000000000000000000000000000600052601160045260246000fd5b6000611d63826113a2565b91507fffffffffffffffffffffffffffffffffffffffffffffffffffffffffffffffff8203611d9557611d94611d29565b5b600182019050919050565b7f4e487b7100000000000000000000000000000000000000000000000000000000600052603260045260246000fdfea26469706673582212205bddadbb934189f8bea2e22d9508eb3872179a11adfb7c674e608037b2b8275d64736f6c63430008130033",
  "immutableReferences": {},
  "source": "// SPDX-License-Identifier: GPL-3.0\n\npragma solidity >= 0.5.0 <0.9.0;\n\ncontract Djob{\n    address payable[] public empssss;\n    struct job{\n        address employer;\n        string jname;\n        string jobDesc;\n        uint budget;\n        string jlocation;\n        string jmode;\n    }\n\n    struct emp{\n        address employee;\n        string name;\n        uint age;\n        string role;\n        uint yearsofexperiance;\n        string skills;\n    }\n\n    mapping(uint=>job)public Jobs;\n    mapping(uint=>emp)public Emps;\n    mapping(address=>mapping(address=>uint)) public applied;\n    mapping(address=>mapping(uint=>uint)) public hire;\n\n    uint nextID;\n    uint nextEID;\n\n    mapping(address=>mapping(uint=>job))public jobdetails;\n    mapping(address=>emp)public empdetails;\n\n    function postjob(string memory name,string memory jdesc,uint budjet,string memory jloc,string memory jmode) external{\n        Jobs[nextID]=job(msg.sender,name,jdesc,budjet,jloc,jmode);\n        jobdetails[msg.sender][nextID]=job(msg.sender,name,jdesc,budjet,jloc,jmode);\n        nextID++;\n    }\n\n    function createAcc(string memory name,uint age,string memory role,uint exp,string memory skill) external{\n        Emps[nextEID]=emp(msg.sender,name,age,role,exp,skill);\n        nextEID++;\n        empssss.push(payable(msg.sender));\n        empdetails[msg.sender]=emp(msg.sender,name,age,role,exp,skill);\n    }\n\n    function Apply(uint jid) external{\n\n        job storage _job =Jobs[jid];\n        address emplr=_job.employer;\n\n        applied[msg.sender][emplr]=jid;\n        \n    }\n\n    function Hire(uint jid,uint eid) external{\n\n        // emp storage _emp =Emps[eid];\n        // address emple=_emp.employee;\n\n        hire[msg.sender][jid]=eid;\n        \n    }\n\n    function getbal() public view returns(uint){\n        return address(this).balance;\n    }\n\n    function pay(uint eid) external payable{\n        \n        address payable empewhodonejob;\n\n        empewhodonejob=empssss[eid];\n\n        empewhodonejob.transfer(getbal());\n    }\n\n    \n\n\n\n\n}",
  "sourcePath": "C:\\Users\\91993\\Desktop\\Blockchain\\Acm\\web3lab-lottery\\contracts\\d-Job.sol",
  "compiler": {
    "name": "solc",
    "version": "0.8.19+commit.7dd6d404.Emscripten.clang"
  },
  "schemaVersion": "3.4.13",
  "updatedAt": "2023-03-15T17:51:57.660Z",
  "devdoc": {
    "kind": "dev",
    "methods": {},
    "version": 1
  },
  "userdoc": {
    "kind": "user",
    "methods": {},
    "version": 1
  }
}